:030000000206599C
:0C065900787FE4F6D8FD7581200206A031
:0808FF007F367EC7DEFEDFFC40
:0109070022CD
:1008BA00C290D2917580FFD295AF80C295EF20E7A2
:0108CA00F637
:0108CB00220A
:1008EF00AE071208BAC291D2908E80D295C29522CD
:0A0856007F381208601208FF7F3897
:10086000AE071208BAC291C2908E80D295C295226C
:050908007F0102086000
:1008CC00BD01047C408002E4FCEF2CFC4480FF0260
:0208DC000860B2
:1008DE001208CCAF031BEF60077F201208EF80F3E6
:0108EE0022E7
:1007E4008B128A1389141208CCAF151515EF6017F4
:1007F400AB120514E514AA137002051314F91204BC
:0808040079FF1208EF80E222E7
:05090D007F0F020860ED
:050912007F0C020860EB
:10088A001208561208FF1208567F0C1208607F06DB
:08089A001208607F01020860F2
:0409170000000000DC
:0804DF008B088A09890A8D0BC4
:1004E700780C7C007D007BFF7A0979177E007F04FA
:1004F700120453AB08AA09A90A900006120492FF36
:10050700120479FE6F600990000B120492B5061071
:10051700EEC39430400AEED3943950048E0C802CED
:10052700AB08AA09A90A90000B1204926F60030294
:100537000658900006120492FFC394305003020637
:1005470058EFD3943940030206588F0CAB08AA0919
:10055700A90A900007120492FF900001120492FE6C
:100567006F600990000C120492B50610EEC3943028
:10057700400AEED3943950048E0D802CAB08AA099B
:10058700A90A90000C1204926F60030206589000AB
:1005970007120492FFC394305003020658EFD39416
:1005A7003940030206588F0DAB08AA09A90A900023
:1005B70008120492FF900002120492FE6F600990E5
:1005C700000D120492B50608EEB42E04F50E801C39
:1005D700AB08AA09A90A90000D1204926F707290D5
:1005E7000008120492FF642E70678F0EAB08AA09E9
:1005F700A90A900009120492FF900003120492FEC8
:100607006F600990000E120492B50610EEC3943085
:10061700400AEED3943950048E0F8023AB08AA0901
:10062700A90A90000E1204926F7026900009120416
:1006370092FFC39430401AEFD3943950148F0F129E
:1006470009087B007A00790C751504E4FDFF120791
:01065700E4BE
:01065800227F
:10000E007F587E0212072E7F011206E512088A1211
:04001E00087080FBEB
:1006E500AC07E41202CE7BCD7ACC792C7846120188
:1006F5001EE4FBFA79407841120227A804A905AA4D
:1007050006AB07E4FFFE7D807C4712002912030239
:10071500AD07AC068C198D1A85198C851A8A5389F3
:08072500F0438901D2A9D28C36
:01072D0022A9
:03000B0002077772
:10077700C0E0C0F0C083C082C0D075D000C000C048
:1007870001C002C003C004C005C006C00785198C9C
:10079700851A8A7F01120833D007D006D005D00406
:1007A700D003D002D001D000D0D0D082D083D0F0F7
:0307B700D0E0325D
:06000300011800011600C7
:10072E00538EBF538EFEAD07AC06E41202C9A80469
:10073E00A905AA06AB07E4FFFE7DE17C461202275F
:10074E00A804A905AA06AB07E4FFFE7D807C431230
:10075E0000291203028F8D8F8BD2AFD2AC53890F2B
:09076E00438920759850D28E22B7
:1008A200ED60141D120479F599740129F9E43AFAFC
:0808B2003003FDC20380E922BE
:10080C00E518C39D5002AD18E4FFEFC39D50127460
:10081C00002FF8E21204BF740129F9E43AFA0F80B0
:06082C00E9E4F518AF0538
:0108320022A3
:10087000300216C2027BFE7A0079407D4012080CDD
:09088000AD077A0079401204DF93
:01088900224C
:1008330030001FEF2516F516E517651860068518B5
:1008430017E4F516E516D3941E4007E4F516D20215
:02085300C200E1
:010855002280
:030023000207BA17
:1007BA00C0E0C0D075D000C000309904C299D203FD
:1007CA00309810C298D20174002518F8E599F2D22F
:0A07DA00000518D000D0D0D0E032A6
:1000260002036EE86480F8E933E83360110460F097
:10003600ED33EC337009E8FCE9FDEAFEEBFF220440
:1000460060DED3EB9FEA9EE99DE8C2E78CF0C2F73B
:1000560095F0400CE8CCF8E9CDF9EACEFAEBCFFB07
:1000660012033985D0F05804700320D5B3E8047024
:10007600075002B2D502037892D5EC0460F7E4CCBF
:10008600C0E0C398F8603B94186008400DD0E0FBD0
:10009600020350E4FBFAC9FC8028E830E406E4C910
:1000A600FBE4CAFCE830E305E4C9CACBFCE8540724
:1000B6006010F8C3E913F9EA13FAEB13FBEC13FC2F
:1000C600D8F130F52FC3E49CFCEF9BFFEE9AFEEDD2
:1000D60099FDD0E0FBEF4E4D4C701222DB0302037C
:1000E60075EC2CFCEF33FFEE33FEED33FDED30E720
:1000F600EB020350EF2BFFEE3AFEED39FDD0E0FBAD
:1001060050130BBB0003020378ED13FDEE13FEEF55
:0801160013FFEC13FC0203507F
:10011E00EC4D6011E8497017ED33EC3304600DE4DB
:10012E00FCFFFEFD22E933E8330470F802036E1281
:10013E00033958046009E4CC248150062850090282
:10014E000378284003020375C0E0EB4A7044B9807F
:10015E0006D0E0FB020364EF4E701CBD8008EBFF7F
:10016E00EAFEE9FD80EBE98DF0A4FEE5F002020760
:10017E00E9CDF9EAFEEBFFEF89F0A4FCE5F0CE89BC
:10018E00F0A42EFFE435F0CD89F0A42DFEE435F079
:10019E008067EF4E7005BD80D780C3EF8BF0A4ACA7
:1001AE00F0EE8BF0A42CFCE435F0F8EF8AF0A42CE2
:1001BE00E5F038FCE433CB8DF0A42CFCE5F03BF8F5
:1001CE00EE8AF0A42CFCE5F038F8E433CF89F0A4E5
:1001DE002CFCE5F038CF3400CE89F0A42FFFE5F0EB
:1001EE003EFEE433C98DF0A42EFEE5F039CD8AF043
:1001FE00A42FFFE5F03EFEE43DFD33D0E0FB5007BB
:10020E000BBB000F020378EC2CFCEF33FFEE33FE3A
:06021E00ED33FD02035068
:10022400020378EC5D046005E85904700302036E70
:10023400120339580460F6EC4860F2EC7004FDFED9
:10024400FF22C860DB2481C85009C39860025006AD
:100254000203759850CAF582E9294B4A7005AB82AE
:1002640002036475F0007C1A7880C3EF9BEE9AED6C
:1002740099400DC3EF9BFFEE9AFEED99FDE842F025
:10028400DC23ACF0D0E0FFD0E0FED0E0FDAB822078
:10029400E7101BEB60BAEC2CFCEF33FFEE33FEED02
:1002A40033FD020350E803F830E705C0F075F000B1
:1002B400EF2FFFEE33FEED33FD40B830E7C280AAE6
:1002C40075F020800E75F010800575F0087D007EB5
:1002D400007F003392D530D5031204D1EC334010A3
:1002E400EF33FFEE33FEED33FDEC33FCD5F0ED22BE
:0E02F400E5F0247EA2D513CC92E7CDCEFF22FA
:10030200EDD2E7CD33EC3392D524814006E4FFFEF3
:10031200FDFC22FCE4CFCECDCC24E0501174FF8052
:10032200EDC3CC13CCCD13CDCE13CECF13CF0470EF
:07033200F030D5DE0204D11A
:10033900E9D2E7C933E833F892D5EDD2E7CD33EC0A
:0703490033FC5002B2D52283
:10035000EC30E7100FBF000C0EBE00080DBD00040E
:100360000BEB6014A2D5EB13FCED92E7FD2274FFBA
:10037000FCFDFEFF22E480F8A2D574FF13FC7D8013
:03038000E480EF27
:1006650002000EE493A3F8E493A34003F68001F29D
:1006750008DFF48029E493A3F85407240CC8C33396
:10068500C4540F4420C8834004F456800146F6DF65
:10069500E4800B0102040810204080900003E47EF2
:1006A500019360BCA3FF543F30E509541FFEE4935A
:1006B500A360010ECF54C025E060A840B8E493A321
:1006C500FAE493A3F8E493A3C8C582C8CAC583CA4C
:1006D500F0A3C8C582C8CAC583CADFE9DEE780BE04
:0100090000F6
:10038300E709F608DFFA8046E709F208DFFA803E5C
:1003930088828C83E709F0A3DFFA8032E309F60849
:1003A300DFFA8078E309F208DFFA807088828C83B1
:1003B300E309F0A3DFFA806489828A83E0A3F60865
:1003C300DFFA805889828A83E0A3F208DFFA804C3F
:1003D30080D280FA80C680D4806980F28033801016
:1003E30080A680EA809A80A880DA80E280CA80337F
:1003F30089828A83ECFAE493A3C8C582C8CCC583F7
:10040300CCF0A3C8C582C8CCC583CCDFE9DEE780C6
:100413000D89828A83E493A3F608DFF9ECFAA9F045
:10042300EDFB2289828A83ECFAE0A3C8C582C8CC9B
:10043300C583CCF0A3C8C582C8CCC583CCDFEADEB4
:10044300E880DB89828A83E493A3F208DFF980CC16
:1004530088F0EF60010E4E60C388F0ED2402B4040F
:100463000050B9F582EB2402B4040050AF232345B6
:0604730082239003D37305
:10047900BB010689828A83E0225002E722BBFE0281
:09048900E32289828A83E49322B4
:10049200BB010CE58229F582E5833AF583E022501F
:1004A20006E92582F8E622BBFE06E92582F8E22269
:0D04B200E58229F582E5833AF583E4932283
:1004BF00BB010689828A83F0225002F722BBFE011C
:0204CF00F32216
:0E04D100C3E49FFFE49EFEE49DFDE49CFC223C
:00000001FF
